:020000040800F2
:1000000000040020C1010008C1F10008C1F100088E
:10001000C1F10008C1F10008C1F10008C1F10008F8
:10002000C1F10008C1F10008C1F10008F1E50008C4
:10003000C1F10008C1F10008C1F10008C1F10008D8
:10004000C1F10008C1F10008C1F10008C1F10008C8
:10005000C1F10008C1F10008C1F10008C1F10008B8
:10006000C1F10008C1F10008C1F1000811CA00087F
:10007000C1C9000871C9000821C90008E1C8000809
:1000800091C8000841C8000801BD0008C1F100087E
:10009000C1F10008C1F10008C1F10008C1F1000878
:1000A000C1F10008C1F10008C1F10008C1F1000868
:1000B00051CA0008C1F10008C1F10008C1F10008EF
:1000C000C1F1000871BB000871BA0008C1F1000855
:1000D000C1F10008C1F10008C1F10008C1F1000838
:1000E000C1F10008C1F10008C1F10008C1F1000828
:1000F000C1F10008C1F10008C1F10008F1C7000812
:10010000C1F10008C1F10008C1F10008C1F1000807
:1001100001B80008C1F10008C1F100089110010800
:10012000B1C7000861C7000811C70008C1C60008B0
:1001300081C60008C1F10008C1F10008C1F1000842
:10014000C1F10008C1F10008C1F10008C1F10008C7
:1001500031C60008E1C5000891C50008C1F10008DA
:10016000C1F10008C1F10008C1F10008C1F10008A7
:10017000C1F10008C1F10008C1F10008C1F1000897
:10018000C1F10008C1F10008C1F10008C1F1000887
:10019000C1F10008C1F10008C1F10008C1F1000877
:1001A000C1F10008C1F10008C1F10008C1F1000867
:1001B000C1F10008C1F10008C1F10008C1F1000857
:1001C00072B6264880F3098825484EF60851CEF2CB
:1001D00000010860022080F31488BFF36F8F0FF0D6
:1001E0003FF80CF05DF84FF055301E491E4A914221
:1001F0003CBF41F8040BFAE71C49184A91423CBF46
:1002000041F8040BFAE71A491A4A1B4B9A423EBFBF
:1002100051F8040B42F8040BF8E700201749184A7C
:1002200091423CBF41F8040BFAE70EF0D1FF0FF00A
:100230000FF8144C144DAC4203DA54F8041B8847F1
:10024000F9E707F04DF8114C114DAC4203DA54F8C0
:10025000041B8847F9E70EF0F3BF000000080020F8
:10026000000000080000002000040020000400201E
:10027000E876010800080020600C0020600C0020D7
:1002800010880220C0010008C0010008C001000859
:10029000C001000800000000000000000000000095
:1002A0002DE9F04FC1F80CD0C3689D46BDE8F08F32
:1002B0000EF056FD002383F311882846A047002046
:1002C0000EF00EFF0EF05CFD0EF032FB0EF048FD5E
:1002D00000DFFEE70000000000000000000000005A
:1002E00081F0004102E000BF83F0004330B54FEAE7
:1002F00041044FEA430594EA050F08BF90EA020F54
:100300001FBF54EA000C55EA020C7FEA645C7FEAE6
:10031000655C00F0E2804FEA5454D4EB5555B8BF09
:100320006D420CDD2C4480EA020281EA030382EA7A
:10033000000083EA010180EA020281EA0303362D0C
:1003400088BF30BD11F0004F4FEA01314FF4801CDF
:100350004CEA113102D0404261EB410113F0004FF1
:100360004FEA03334CEA133302D0524263EB4303A8
:1003700094EA050F00F0A780A4F10104D5F1200E46
:100380000DDB02FA0EFC22FA05F2801841F10001A1
:1003900003FA0EF2801843FA05F359410EE0A5F175
:1003A00020050EF1200E012A03FA0EFC28BF4CF0A6
:1003B000020C43FA05F3C01851EBE37101F000455C
:1003C00007D54FF0000EDCF1000C7EEB00006EEB69
:1003D0000101B1F5801F1BD3B1F5001F0CD34908F3
:1003E0005FEA30004FEA3C0C04F101044FEA44524A
:1003F00012F5800F80F09A80BCF1004F08BF5FEAD1
:10040000500C50F1000041EB045141EA050130BDB0
:100410005FEA4C0C404141EB010111F4801FA4F153
:100420000104E9D191F0000F04BF01460020B1FAA8
:1004300081F308BF2033A3F10B03B3F120020CDAE0
:100440000C3208DD02F1140CC2F10C0201FA0CF0BE
:1004500021FA02F10CE002F11402D8BFC2F1200C23
:1004600001FA02F120FA0CFCDCBF41EA0C019040D9
:10047000E41AA2BF01EB0451294330BD6FEA040422
:100480001F3C1CDA0C340EDC04F11404C4F120020D
:1004900020FA04F001FA02F340EA030021FA04F31F
:1004A00045EA030130BDC4F10C04C4F1200220FA76
:1004B00002F001FA04F340EA0300294630BD21FAB4
:1004C00004F0294630BD94F0000F83F4801306BF7A
:1004D00081F480110134013D4EE77FEA645C18BF6E
:1004E0007FEA655C29D094EA050F08BF90EA020F05
:1004F00005D054EA000C04BF1946104630BD91EAFD
:10050000030F1EBF0021002030BD5FEA545C05D1FF
:100510004000494128BF41F0004130BD14F580043E
:100520003CBF01F5801130BD01F0004545F0FE41B2
:1005300041F470014FF0000030BD7FEA645C1ABFE7
:10054000194610467FEA655C1CBF0B46024650EA1E
:10055000013406BF52EA033591EA030F41F400214A
:1005600030BD00BF90F0000F04BF0021704730B5D0
:100570004FF4806404F132044FF000054FF00001A5
:1005800050E700BF90F0000F04BF0021704730B566
:100590004FF4806404F1320410F0004548BF40423B
:1005A0004FF000013EE700BF42004FEAE2014FEA90
:1005B00031014FEA02701FBF12F07F4393F07F4F6B
:1005C00081F06051704792F0000F14BF93F07F4F9D
:1005D000704730B54FF4607401F0004521F00041E0
:1005E00020E700BF50EA010208BF704730B54FF066
:1005F00000050AE050EA010208BF704730B511F06B
:10060000004502D5404261EB41014FF4806404F1A2
:1006100032045FEA915C3FF4DCAE4FF003025FEA24
:10062000DC0C18BF03325FEADC0C18BF033202EBAC
:10063000DC02C2F1200300FA03FC20FA02F001FA06
:1006400003FE40EA0E0021FA02F11444C1E600BFA5
:1006500070B54FF0FF0C4CF4E06C1CEA11541DBF58
:100660001CEA135594EA0C0F95EA0C0F00F0DEF823
:100670002C4481EA030621EA4C5123EA4C5350EA08
:10068000013518BF52EA033541F4801143F4801359
:1006900038D0A0FB02CE4FF00005E1FB02E506F0EA
:1006A0000042E0FB03E54FF00006E1FB03569CF03F
:1006B000000F18BF4EF0010EA4F1FF04B6F5007F45
:1006C00064F5407404D25FEA4E0E6D4146EB0606B7
:1006D00042EAC62141EA55514FEAC52040EA5E5040
:1006E0004FEACE2EB4F1FD0C88BFBCF5E06F1ED8EA
:1006F000BEF1004F08BF5FEA500E50F1000041EB21
:10070000045170BD06F0004646EA010140EA0200CD
:1007100081EA0301B4EB5C04C2BFD4EB0C0541EAEF
:10072000045170BD41F480114FF0000E013C00F304
:10073000AB8014F1360FDEBF002001F0004170BD28
:10074000C4F10004203C35DA0C341BDC04F1140441
:10075000C4F1200500FA05F320FA04F001FA05F2CD
:1007600040EA020001F0004221F0004110EBD3709A
:1007700021FA04F642EB06015EEA430E08BF20EAC6
:10078000D37070BDC4F10C04C4F1200500FA04F369
:1007900020FA05F001FA04F240EA020001F00041FB
:1007A00010EBD37041F100015EEA430E08BF20EA6E
:1007B000D37070BDC4F1200500FA05F24EEA020EB6
:1007C00020FA04F301FA05F243EA020321FA04F0E5
:1007D00001F0004121FA04F220EA020000EBD3709C
:1007E0005EEA430E08BF20EAD37070BD94F0000F9C
:1007F0000FD101F00046400041EB010111F4801FD0
:1008000008BF013CF7D041EA060195F0000F18BF80
:10081000704703F00046520043EB030313F4801FBC
:1008200008BF013DF7D043EA0603704794EA0C0F76
:100830000CEA135518BF95EA0C0F0CD050EA41068C
:1008400018BF52EA4306D1D181EA030101F0004109
:100850004FF0000070BD50EA410606BF1046194631
:1008600052EA430619D094EA0C0F02D150EA01363D
:1008700013D195EA0C0F05D152EA03361CBF10467E
:1008800019460AD181EA030101F0004141F0FE411D
:1008900041F470014FF0000070BD41F0FE4141F4A1
:1008A000780170BD70B54FF0FF0C4CF4E06C1CEAA1
:1008B00011541DBF1CEA135594EA0C0F95EA0C0F56
:1008C00000F0A7F8A4EB050481EA030E52EA033511
:1008D0004FEA013100F088804FEA03334FF0805532
:1008E00045EA131343EA12634FEA022245EA11155F
:1008F00045EA10654FEA00260EF000419D4208BF10
:10090000964244F1FD0404F5407402D25B084FEABC
:100910003202B61A65EB03055B084FEA32024FF468
:1009200080104FF4002CB6EB020E75EB030E22BFC5
:10093000B61A754640EA0C005B084FEA3202B6EB85
:10094000020E75EB030E22BFB61A754640EA5C0034
:100950005B084FEA3202B6EB020E75EB030E22BFC4
:10096000B61A754640EA9C005B084FEA3202B6EBC5
:10097000020E75EB030E22BFB61A754640EADC0084
:1009800055EA060E18D04FEA051545EA16754FEAE6
:1009900006164FEAC30343EA52734FEAC2025FEA04
:1009A0001C1CC0D111F4801F0BD141EA00014FF093
:1009B00000004FF0004CB6E711F4801F04BF014364
:1009C0000020B4F1FD0C88BFBCF5E06F3FF6AFAE80
:1009D000B5EB030C04BFB6EB020C5FEA500C50F110
:1009E000000041EB045170BD0EF0004E4EEA113193
:1009F00014EB5C04C2BFD4EB0C0541EA045170BD9A
:100A000041F480114FF0000E013C90E645EA060EDD
:100A10008DE60CEA135594EA0C0F08BF95EA0C0F0B
:100A20003FF43BAF94EA0C0F0AD150EA01347FF453
:100A300034AF95EA0C0F7FF425AF104619462CE72A
:100A400095EA0C0F06D152EA03353FF4FDAE10468D
:100A5000194622E750EA410618BF52EA43067FF4DE
:100A6000C5AE50EA41047FF40DAF52EA43057FF46E
:100A7000EBAE12E7000000000000000000000000E4
:100A80004FF0FF3C06E000BF4FF0010C02E000BF5A
:100A90004FF0010C4DF804CD4FEA410C7FEA6C5C3D
:100AA0004FEA430C18BF7FEA6C5C1BD001B050EAE0
:100AB000410C0CBF52EA430C91EA030F02BF90EACB
:100AC000020F0020704710F1000F91EA030F58BF8A
:100AD000994208BF90422CBFD8176FEAE37040F0EC
:100AE000010070474FEA410C7FEA6C5C02D150EA8A
:100AF000013C07D14FEA430C7FEA6C5CD6D152EA45
:100B0000033CD3D05DF8040B704700BF8446104609
:100B100062468C461946634600E000BF01B5FFF708
:100B2000B7FF002848BF10F1000F01BD4DF808EDD8
:100B3000FFF7F4FF0CBF012000205DF808FB00BFA9
:100B40004DF808EDFFF7EAFF34BF012000205DF803
:100B500008FB00BF4DF808EDFFF7E0FF94BF012050
:100B600000205DF808FB00BF4DF808EDFFF7CEFF51
:100B700094BF012000205DF808FB00BF4DF808ED90
:100B8000FFF7C4FF34BF012000205DF808FB00BF61
:100B90004FEA410C7FEA6C5C02D150EA013C0AD179
:100BA0004FEA430C7FEA6C5C02D152EA033C02D16B
:100BB0004FF0000070474FF0010070470000000048
:100BC0004A0011D212F5001211D20DD56FF47873CC
:100BD000B3EB62520ED44FEAC12343F0004343EA21
:100BE000505323FA02F070474FF00000704750EA6C
:100BF000013002D14FF0FF3070474FF000007047D6
:100C00004FEA4102B2F1E04324BFB3F5001CDCF12E
:100C1000FE5C0DD901F0004C4FEAC0024CEA507066
:100C2000B2F1004F40EB830008BF20F00100704795
:100C300011F0804F21D113F13872BCBF01F0004098
:100C4000704741F480114FEA5252C2F11802C2F1CA
:100C5000200C10FA0CF320FA02F018BF40F001004B
:100C60004FEAC1234FEAD32303FA0CFC40EA0C00FD
:100C700023FA02F34FEA4303CCE77FEA625307D13A
:100C800050EA01331EBF4FF0FE4040F44000704771
:100C900001F0004040F0FE4040F40000704700BF0B
:100CA00080F0004002E000BF81F0004142001FBF21
:100CB0005FEA410392EA030F7FEA226C7FEA236C2A
:100CC0006AD04FEA1262D2EB1363C1BFD21841401F
:100CD00048404140B8BF5B42192B88BF704710F0B5
:100CE000004F40F4000020F07F4018BF404211F058
:100CF000004F41F4000121F07F4118BF494292EAC0
:100D0000030F3FD0A2F1010241FA03FC10EB0C00EB
:100D1000C3F1200301FA03F100F0004302D5494278
:100D200060EB4000B0F5000F13D3B0F1807F06D325
:100D300040084FEA310102F10102FE2A51D2B1F11D
:100D4000004F40EBC25008BF20F0010040EA030012
:100D50007047490040EB000010F4000FA2F10102BF
:100D6000EDD1B0FA80FCACF1080CB2EB0C0200FA49
:100D70000CF0AABF00EBC25052421843BCBFD04097
:100D80001843704792F0000F81F4000106BF80F411
:100D900000000132013BB5E74FEA41037FEA226CD4
:100DA00018BF7FEA236C21D092EA030F04D092F09F
:100DB000000F08BF0846704790EA010F1CBF0020D3
:100DC000704712F07F4F04D1400028BF40F0004030
:100DD000704712F100723CBF00F50000704700F050
:100DE000004343F0FE4040F4000070477FEA226277
:100DF00016BF08467FEA23630146420206BF5FEA48
:100E0000412390EA010F40F4800070474FF0000347
:100E100004E000BF10F0004348BF40425FEA000C0E
:100E200008BF704743F0964301464FF000001CE0B6
:100E300050EA010208BF70474FF000030AE000BF0C
:100E400050EA010208BF704711F0004302D540424A
:100E500061EB41015FEA010C02BF844601460020BC
:100E600043F0B64308BFA3F18053A3F50003BCFAD7
:100E70008CF2083AA3EBC25310DB01FA02FC634484
:100E800000FA02FCC2F12002BCF1004F20FA02F28B
:100E900043EB020008BF20F00100704702F120027E
:100EA00001FA02FCC2F1200250EA4C0021FA02F2DF
:100EB00043EB020008BF20EADC707047000000002E
:100EC0004FF0FF0C1CEAD0521EBF1CEAD15392EA2D
:100ED0000C0F93EA0C0F6FD01A4480EA010C400209
:100EE00018BF5FEA41211ED04FF0006343EA501063
:100EF00043EA5111A0FB01310CF00040B1F5000FA5
:100F00003EBF490041EAD3715B0040EA010062F153
:100F10007F02FD2A1DD8B3F1004F40EBC25008BF3D
:100F200020F00100704790F0000F0CF0004C08BF5B
:100F300049024CEA502040EA51207F3AC2BFD2F128
:100F4000FF0340EAC250704740F400004FF0000336
:100F5000013A5DDC12F1190FDCBF00F00040704770
:100F6000C2F10002410021FA02F1C2F1200200FAAE
:100F700002FC5FEA310040F1000053EA4C0308BF75
:100F800020EADC70704792F0000F00F0004C02BFC6
:100F9000400010F4000F013AF9D040EA0C0093F041
:100FA000000F01F0004C02BF490011F4000F013B9B
:100FB000F9D041EA0C018FE70CEAD15392EA0C0F09
:100FC00018BF93EA0C0F0AD030F0004C18BF31F074
:100FD000004CD8D180EA010000F00040704790F04A
:100FE000000F17BF90F0004F084691F0000F91F0EE
:100FF000004F14D092EA0C0F01D142020FD193EAB4
:101000000C0F03D14B0218BF084608D180EA01003B
:1010100000F0004040F0FE4040F40000704740F017
:10102000FE4040F4400070474FF0FF0C1CEAD052E5
:101030001EBF1CEAD15392EA0C0F93EA0C0F69D041
:10104000A2EB030280EA010C49024FEA402037D0AC
:101050004FF0805343EA111143EA10130CF00040A3
:101060008B4238BF5B0042F17D024FF4000C8B4293
:1010700024BF5B1A40EA0C00B3EB510F24BFA3EB73
:10108000510340EA5C00B3EB910F24BFA3EB910343
:1010900040EA9C00B3EBD10F24BFA3EBD10340EA9D
:1010A000DC001B0118BF5FEA1C1CE0D1FD2A3FF6E3
:1010B00050AF8B4240EBC25008BF20F00100704798
:1010C0000CF0004C4CEA50207F32C2BFD2F1FF033B
:1010D00040EAC250704740F400004FF00003013A6C
:1010E00037E792F0000F00F0004C02BF400010F410
:1010F000000F013AF9D040EA0C0093F0000F01F024
:10110000004C02BF490011F4000F013BF9D041EA45
:101110000C0195E70CEAD15392EA0C0F08D1420278
:101120007FF47DAF93EA0C0F7FF470AF084676E74B
:1011300093EA0C0F04D14B023FF44CAF08466EE724
:1011400030F0004C18BF31F0004CCAD130F00042F2
:101150007FF45CAF31F000437FF43CAF5FE700BF4A
:101160004FF0FF3C06E000BF4FF0010C02E000BF73
:101170004FF0010C4DF804CD4FEA40024FEA410315
:101180007FEA226C18BF7FEA236C11D001B052EACB
:10119000530C18BF90EA010F58BFB2EB030088BF91
:1011A000C81738BF6FEAE17018BF40F00100704700
:1011B0007FEA226C02D15FEA402C05D17FEA236CE2
:1011C000E4D15FEA412CE1D05DF8040B704700BF29
:1011D000844608466146FFE70FB5FFF7C9FF0028C0
:1011E00048BF10F1000F0FBD4DF808EDFFF7F4FFF9
:1011F0000CBF012000205DF808FB00BF4DF808ED92
:10120000FFF7EAFF34BF012000205DF808FB00BFB4
:101210004DF808EDFFF7E0FF94BF012000205DF8D6
:1012200008FB00BF4DF808EDFFF7D2FF94BF012087
:1012300000205DF808FB00BF4DF808EDFFF7C8FF80
:1012400034BF012000205DF808FB00BF0000000053
:101250004FEA40024FEA41037FEA226C02D15FEA83
:10126000402C08D17FEA236C02D15FEA412C02D1E5
:101270004FF0000070474FF0010070470000000081
:1012800042000ED2B2F1FE4F0BD34FF09E03B3EBF0
:10129000126209D44FEA002343F0004323FA02F01C
:1012A00070474FF00000704712F1610F01D1420208
:1012B00002D14FF0FF3070474FF00000704700BF81
:1012C0007BB972B90029BEBF00204FF0004106E093
:1012D00008BF00281CBF6FF000414FF0FF3000F046
:1012E000CFB9ADF1080C6DE904CE002909DB002B64
:1012F0001ADB00F04DF8DDF804E0DDE9022304B06C
:101300007047404261EB4101002B1BDB00F040F8CD
:10131000DDF804E0DDE9022304B0404261EB410165
:10132000524263EB43037047524263EB430300F0C6
:101330002FF8DDF804E0DDE9022304B0404261EB60
:1013400041017047524263EB430300F021F8DDF89E
:1013500004E0DDE9022304B0524263EB430370472B
:1013600053B94AB9002908BF00281CBF4FF0FF310C
:101370004FF0FF3000F084B9ADF1080C6DE904CEF8
:1013800000F006F8DDF804E0DDE9022304B0704760
:101390002DE9F0478C460E460446089D002B50D19F
:1013A0008A4217466CD9B2FA82FEBEF1000F0BD00A
:1013B000CEF1200420FA04F401FA0EF644EA060CF9
:1013C00002FA0EF700FA0EF44FEA1749220CBCFBA2
:1013D000F9F01FFA87F809FB10C642EA064600FB3F
:1013E00008F3B34209D9F61900F1FF3280F02281E7
:1013F000B34240F21F8102383E44F61AA2B2B6FB55
:10140000F9F309FB136642EA064403FB08F8A0451A
:1014100009D9E41903F1FF3280F00A81A04540F2B6
:101420000781023B3C44C8EB040443EA004000212E
:10143000002D62D024FA0EF400232C606B60BDE80E
:10144000F0878B4207D9002D55D0002185E8410057
:101450000846BDE8F087B3FA83F1002940F0908098
:10146000B34202D3824200F2F880841A66EB03068C
:101470000120B446002D40D085E81010BDE8F0876B
:1014800012B90127B7FBF2F7B7FA87FEBEF1000FDA
:1014900035D1F31B4FEA17481FFA87FC0121B3FB34
:1014A000F8F0220C08FB103642EA06460CFB00F36B
:1014B000B34207D9F61900F1FF3202D2B34200F26B
:1014C000CE801046F61AA2B2B6FBF8F308FB1366FC
:1014D00042EA06440CFB03FCA44507D9E41903F1D6
:1014E000FF3202D2A44500F2B5801346CCEB0404CF
:1014F00043EA00409CE729462846BDE8F087CEF144
:10150000200106FA0EF307FA0EF720FA01F94FEA66
:101510001748CE4049EA0309B6FBF8FA4FEA1944E6
:1015200008FB1A661FFA87FC44EA06430AFB0CF222
:101530009A4200FA0EF40AD9DB190AF1FF3180F061
:1015400087809A4240F28480AAF1020A3B449B1AA7
:101550001FFA89F9B3FBF8F108FB113349EA034399
:1015600001FB0CF69E4207D9DB1901F1FF326BD269
:101570009E4269D902393B449B1B41EA0A418EE7EE
:10158000C1F1200E22FA0EF48B40234320FA0EF70D
:1015900006FA01F44FEA134C26FA0EF63C43B6FB6A
:1015A000FCF9270C0CFB19661FFA83F847EA06467C
:1015B00009FB08F7B74202FA01F200FA01FA08D96A
:1015C000F61809F1FF3041D2B7423FD9A9F102091B
:1015D0001E44F61BA0B2B6FBFCF40CFB146640EAFA
:1015E000064704FB08F8B84507D9FF1804F1FF3097
:1015F00028D2B84526D9023C1F4444EA0940C8EB2A
:101600000707A0FB02894F4544464E4614D329D014
:1016100065B3BAEB040367EB060707FA0EFECB408F
:10162000CF404EEA030385E888000021BDE8F0873B
:101630001346F8E61046E0E6B8EB020469EB030651
:101640000138E5E70446D8E7114695E78146C0E74B
:101650008A467CE7023B3C4448E708460AE70238F2
:101660003E442FE7C245E7D33E46D1E72946BDE8D1
:10167000F08700BF00000000000000000000000034
:10168000704700BF000000000000000000000000E4
:10169000844641EA000313F003036DD1403A41D37D
:1016A00051F8043B40F8043B51F8043B40F8043B3C
:1016B00051F8043B40F8043B51F8043B40F8043B2C
:1016C00051F8043B40F8043B51F8043B40F8043B1C
:1016D00051F8043B40F8043B51F8043B40F8043B0C
:1016E00051F8043B40F8043B51F8043B40F8043BFC
:1016F00051F8043B40F8043B51F8043B40F8043BEC
:1017000051F8043B40F8043B51F8043B40F8043BDB
:1017100051F8043B40F8043B51F8043B40F8043BCB
:10172000403ABDD2303211D351F8043B40F8043B6B
:1017300051F8043B40F8043B51F8043B40F8043BAB
:1017400051F8043B40F8043B103AEDD20C3205D37B
:1017500051F8043B40F8043B043AF9D2043208D073
:10176000D2071CBF11F8013B00F8013B01D30B88E5
:1017700003806046704700BF082A13D38B078DD0C3
:1017800010F003038AD0C3F10403D21ADB071CBF95
:1017900011F8013B00F8013B80D331F8023B20F8FF
:1017A000023B7BE7043AD9D3013A11F8013B00F838
:1017B000013BF9D20B7803704B7843708B788370C0
:1017C00060467047000000000000000000000000BC
:1017D000A2EB0300704700BF02780B78012A28BFF4
:1017E0009A42F5D16DE9044540EA0104CDE902676A
:1017F0006FF0000C4FEA447212B380EA010414F057
:10180000070F6AD100F0070420F0070004F0030579
:1018100021F007014FEAC505F0E8042314F0040F96
:10182000F1E804670CFA05F462EA040266EA0406C9
:101830000AD063EA0403624667EA0407664603E0E7
:10184000F0E80423F1E8046782FA4CF582EA060422
:10185000A4FA8CF46CBB83FA4CF583EA0705A5FA6D
:101860008CF595B950E9022351E9026782FA4CF5EB
:1018700082EA0604A4FA8CF483FA4CF583EA07059D
:10188000A5FA8CF52543DBD09CB92DBAB5FA85F4C1
:1018900024F0070427FA04F1DDE9026723FA04F3D0
:1018A00003F0FF0001F0FF01FDE80445A0EB01009B
:1018B000704724BAB4FA84F424F0070426FA04F139
:1018C000DDE9026722FA04F202F0FF0001F0FF01F5
:1018D000FDE80445A0EB0100704714F0030F3CD174
:1018E00010F0030428D150F8082B51F8083B82FA75
:1018F0004CF582EA0305A5FA8CF55DB950F8042C85
:1019000051F8043C82FA4CF582EA0305A5FA8CF5FD
:10191000002DE8D02DBAB5FA85F424F0070423FA97
:1019200004F122FA04F202F0FF0001F0FF01FDE8E9
:101930000445A0EB010070474FEAC40420F0030007
:1019400050F8082B21F0030151F8083B0CFA04F47D
:1019500062EA040263EA0403C9E710F003041AD040
:10196000A1EB040120F00300E40750F8042B06D09B
:101970000FD28B785FFAA2F4E41A06D12BB1CB78A0
:101980005FFAB2F4E41A00D11BB920465DF8104B9F
:10199000704701F1040150F8042BCC0721F003013A
:1019A00051F8043B48D824D222F07F4482FA4CF507
:1019B00094EA1325A5FA8CF50AD165B951F8043BD0
:1019C00084EA0204B4EB036F0ED150F8042BEBE76A
:1019D0004FEA132355E035F07F454DD10878FDE8F7
:1019E0000445C0F1000070474FEA126203F0FF03A4
:1019F00047E002EA1C4482FA4CF594EA1345A5FA42
:101A00008CF50AD165B951F8043B84EA0204B4EBC1
:101A1000034F0CD150F8042BEBE74FEA134330E0AF
:101A200015EA1C4528D10B884FEA124229E04FEAFB
:101A3000124203EA1C4324E002F0FF0482FA4CF550
:101A400094EA1365A5FA8CF50AD165B951F8043BFF
:101A500084EA0204B4EB032F09D150F8042BEBE71E
:101A60004FEA13630DE015F0FF0F05D10B684FEA45
:101A7000122223F07F4304E04FF00000FDE804450C
:101A8000704712BA1BBA82FA4CF482EA0304A4FA31
:101A90008CF5B5FA85F402FA04F203FA04F34FEA7E
:101AA0001260FDE80445A0EB1360704700000000E1
:101AB00090F800F06DE9024520F007016FF0000C8E
:101AC00010F0070491F820F040F049804FF0000436
:101AD0006FF00700D1E9002391F840F000F1080011
:101AE00082FA4CF2A4FA8CF283FA4CF3A2FA8CF349
:101AF0004BBBD1E9022382FA4CF200F10800A4FAB0
:101B00008CF283FA4CF3A2FA8CF3E3B9D1E9042303
:101B100082FA4CF200F10800A4FA8CF283FA4CF33A
:101B2000A2FA8CF37BB9D1E9062301F1200182FAF4
:101B30004CF200F10800A4FA8CF283FA4CF3A2FAFA
:101B40008CF3002BC6D0002A04BF04301A4612BA08
:101B5000B2FA82F2FDE8024500EBD2007047D1E90B
:101B6000002304F00305C4F100004FEAC50514F09A
:101B7000040F91F840F00CFA05F562EA05021CBF6B
:101B800063EA050362464FF00004A9E70000000085
:101B90002DE980481D481E4CF9B00DF0A9F94FF011
:101BA00080434FF47A705A6A596A1A4B00FB01F16C
:101BB000A4FB0151890BA3FB0153A4FB02429B0927
:101BC00000FB1313920B1449144810F089FD144ABA
:101BD0001449124810F084FD4C23134A13490F484E
:101BE00010F07EFD12490D4810F07AFD11490B48A6
:101BF00010F076FD1049094810F072FD03480DF011
:101C000017F90E4A0E490F4B116026E02C7B02207B
:101C10005917B7D1D34D6210503C0108607E0220A5
:101C2000FC3C01085C3C01086C3C0108783C010864
:101C3000003D0108843C0108AC3C01083C7E0220C8
:101C4000640C002000000C08B84AB8491268B3F1CF
:101C5000016F02F101020A6004D01A68013203F137
:101C60001003F1D14FF08047B148B24EB24CDFF8CB
:101C700004830DF03DF97A6A7B6AB049B0484FF4AD
:101C80007A7505FB03F3A6FB03E39B0BA4FB03CED2
:101C90004FEA9E1EA6FB02C205FB1E33920B10F0FC
:101CA0001FFDA84AA849A64810F01AFD5A23A74AC2
:101CB000A749A34810F014FDA649A14810F010FD53
:101CC0009A4BA5491A689E4810F00AFDA3499C4802
:101CD00010F006FD96480DF0ABF83DA808F0A8FA04
:101CE000924BD8F800201B68BDF8F4009DF8F61060
:101CF0009080013BC3F30D03917103F500039DF840
:101D0000F710D1719DF8F8E09DF8F9009DF8FA10F0
:101D100082F808E003F540431B015072917293E88A
:101D200002409868DB6893610023937313775377BD
:101D300001318B4B5061C2F810E07D48329301F0C5
:101D400049870DF0D5F87A6A7B6A7C49854F05FB97
:101D500003F3A6FB03039B0BA4FB03408009A6FB34
:101D6000024205FB1033920B754810F0B9FC7E4A15
:101D70007549734810F0B4FC8023744A7449704864
:101D800010F0AEFC73496E4810F0AAFCD8F80020A1
:101D9000764910695369926905920028D4BF4FF0C3
:101DA000FF320122002B00FB02F2D4BF4FF0FF35BF
:101DB000012503FB05F681FB0245D417C4EBA554AE
:101DC000674D049507FB142481FB0625F217C2EB2F
:101DD000A55207FB126581FB0362DB17C3EBA2521E
:101DE00081FB0061C31702925D4A0094C3EBA153CB
:101DF000039501925E49524810F072FC57495048D1
:101E000010F06EFC4A480DF013F85A4B1D461C6842
:101E100008F01EFEE0832C6808F02AFE20842C685F
:101E20000DF0EEFD60842C680DF002FEA08477209A
:101E30000DF076FF0446002801F08C86772155A826
:101E40000DF0C6FE55A82C680BF06AF9A06255A8E3
:101E50002C680DF02DFEA08555A82C680DF080FE95
:101E6000E08576200DF05CFF0446002801F0108626
:101E700076214AA80DF0ACFE3E4B4AA81C680BF038
:101E80004FF93C4B20634AA81C680DF011FE394BFA
:101E9000A0864AA81C680DF063FEE0864FF08043E0
:101EA000DFF8D8805B6A2593DFF888A0DFF8889098
:101EB000012331934FF080451D480DF019F86A6AEF
:101EC0006C6A1E491E484FF47A7606FB04F4AAFB9E
:101ED0000434A40BA9FB0473AAFB02729B0906FB42
:101EE0001343920B10F0FCFB1F4A1749144810F0E3
:101EF000F7FBAB23154A1649114810F0F1FB1549C1
:101F00000F4810F0EDFB1C490D4810F0E9FB319B28
:101F100012490B4803F001021746309210F0E0FB23
:101F2000FA0003482F920CF083FF29E0600C002098
:101F30002C7B02205917B7D1D34D6210503C0108B9
:101F4000607E0220B03C01085C3C01086C3C01084A
:101F5000783C0108003D0108B83C0108AC3C010890
:101F6000D43C010880969800FC3C01086BCA5F6B6A
:101F7000043D01083C7E0220F43D01089C780220CB
:101F8000B4496B6A0B602F9A319BB349D21B013B5A
:101F9000002403F0010301EBC20235933392449411
:101FA0004594469447944894499408F061FD40F65E
:101FB000B733984240F24484A848A94FDFF8E4B20E
:101FC0000CF096FF6A6A6B6AA649A74806FB03FEF7
:101FD000AAFB0E3E4FEA9E3EA9FB0EC3AAFB02C21D
:101FE0009B0906FB13E3920B10F07AFB9F4AA04972
:101FF0009D4810F075FB4FF4E6739E4A9E499A483F
:1020000010F06EFB9D49984810F06AFB9C49964879
:1020100010F066FB9B49944810F062FB8F480CF06F
:1020200007FF0122384611460AF0AAF95846012254
:1020300004210AF0A5F92246384602210AF0A0F947
:1020400086480CF055FF6A6A6B6A8649864806FB2B
:1020500003FEAAFB0E3E4FEA9E3EA9FB0EC3AAFB5F
:1020600002C29B0906FB13E3920B10F039FB7F4A77
:102070007F497D4810F034FB4FF4E9737D4A7E4977
:10208000794810F02DFB7D49774810F029FB7E49F7
:10209000754810F025FB7B49734810F021FB6F4811
:1020A0000CF0C6FE042301223A834EF66020ABF802
:1020B00018300CF0EDFF69480CF01AFF6A6A6F6A7D
:1020C0006849694806FB07F7AAFB0737BF0BA9FB5E
:1020D00007E3AAFB02E29B0906FB1373920B10F0C5
:1020E000FFFA624A6249604810F0FAFA4FF4EE7360
:1020F000604A61495C4810F0F3FA60495A4810F0B0
:10210000EFFA6249584810F0EBFA5E49564810F071
:10211000E7FA52480CF08CFE5D4B186859689A68D3
:10212000DB686BAF0FC75A4B186959699A6907C7C3
:102130001C216BA80CF01CFA20460BF0C9FB0028F0
:1021400000F0FC8645480CF0D3FE6A6A686A45498F
:1021500006FB00F0AAFB0030800BA9FB0043AAFBA2
:1021600002429B0906FB1303920B3F4810F0B8FA9A
:102170003E4A3F493C4810F0B3FA4FF4EF733D4AF2
:102180003D49394810F0ACFA3C49374810F0A8FAFC
:102190004049354810F0A4FA3A49334810F0A0FA03
:1021A0002E480CF045FE3C4C6BAE04F12007206835
:1021B0006168A268E36835460FC51034BC422E46FC
:1021C000F5D120686168A26807C62C216BA80CF0C5
:1021D000CFF924200BF07CFB002800F073861F4809
:1021E0000CF086FE4FF080434FF47A745A6A586AB6
:1021F0001C4904FB00F0AAFB0030800BA9FB005334
:10220000AAFB02529B0904FB1303920B164810F021
:1022100067FA164A1649144810F062FA40F2EF13B2
:10222000144A1549104810F05BFA14490E4810F092
:1022300057FA1A490C4810F053FA12490A4810F09C
:102240004FFA06480CF0F4FD154C6BAE04F1300764
:102250002AE000BF24770220640C00202C7B02209F
:1022600000040240503C0108607E0220FC3C010852
:102270005C3C0108243E0108783C0108003D01084F
:102280002C3E0108AC3C0108403E0108543E0108C8
:10229000003B01086C3E01081C3B0108B03E0108F0
:1022A000483B01080000024020686168A268E368BA
:1022B00035460FC51034BC422E46F5D12068286043
:1022C00034216BA80CF054F93B200BF001FB0028E3
:1022D00000F0788543480CF00BFE4FF080434FF43C
:1022E0007A745A6A586A404904FB00F0AAFB00302D
:1022F000800BA9FB0053AAFB02529B0904FB1303AA
:10230000920B3A4810F0ECF9394A3A49374810F044
:10231000E7F940F2F513384A3849344810F0E0F94B
:102320003749324810F0DCF93649304810F0D8F916
:1023300035492E4810F0D4F92A480CF079FD334B7A
:10234000186859686BAB03C30020212291238DF8D4
:10235000B3010A216BA88DF8B4218DF8B5310CF0CA
:1023600007F911200BF0B4FA002841F0A2801D48B3
:102370000CF0BEFD4FF080434FF47A745A6A586AED
:10238000194904FB00F0AAFB0030800BA9FB0053A5
:10239000AAFB02529B0904FB1303920B134810F093
:1023A0009FF91B4A1349114810F09AF940F2FD13A6
:1023B000114A12490D4810F093F911490B4810F0D9
:1023C0008FF91449094810F08BF90F49074810F0AC
:1023D00087F904480CF02CFD40F2FD1106480DF081
:1023E000BFFD38E12C7B0220503C0108607E0220BA
:1023F000FC3C01085C3C0108243E0108783C0108D3
:10240000003D0108F43E0108AC3C01087C3B01089A
:102410009C3D0108583F0108B2480CF069FD4FF09F
:1024200080434FF47A755A6A586AAF4905FB00F049
:10243000AAFB0030800BA9FB0063AAFB02629B0988
:1024400005FB1303920BA94810F04AF9A84AA949C1
:10245000A64810F045F9ED23A74AA849A34810F073
:102460003FF9A749A14810F03BF9A6499F4810F051
:1024700037F9A5499D4810F033F99A480CF0D8FC7B
:10248000ED219D480DF06CFD98F8121098F8113070
:1024900098F8102098F8130098F809502A95090424
:1024A00001EB0323134498F80A50269503EB0063CD
:1024B00089FB031298F80B502795DB1798F8045006
:1024C0002B95C3EBA21398F8062098F805502D928F
:1024D000002B98F8072098F808702C952E9240F35E
:1024E00094814CF250329342A8BF13462993874BF4
:1024F0001868596860AB03C3082160A80CF038F86D
:1025000006200AF04DFF002840F00E8175480CF0BF
:10251000EFFC4FF080434FF47A755A6A586A72495B
:1025200005FB00F0AAFB0030800BA9FB0063AAFBAF
:1025300002629B0905FB1303920B6C4810F0D0F864
:102540006B4A6C49694810F0CBF84FF485736A4ABE
:102550006A49664810F0C4F86949644810F0C0F848
:102560006B49624810F0BCF86749604810F0B8F851
:102570005C480CF05DFC4FF485715F480DF0F0FC99
:10258000644B98F80AB01868596898F82F506BABEC
:1025900003C308216BA80BF0EBFF21200AF000FF1A
:1025A000002800F0F7804F480CF0A2FC4FF0804369
:1025B0004FF47A765A6A586A4B4906FB00F0AAFB38
:1025C0000030800BA9FB00E3AAFB02E29B0906FB9B
:1025D0001303920B454810F083F84F4A454943488E
:1025E00010F07EF84FF48E73434A44493F4810F090
:1025F00077F843493D4810F073F848493B4810F0DC
:102600006FF84149394810F06BF836480CF010FC6F
:1026100098F8103098F80C2098F80D1098F80E00E3
:1026200098F80F602893BBF1030F98F811E098F821
:1026300012C000F0038440F697039C4240F2CC8421
:102640004FF08044259B646A03F50C1303F5C353D4
:102650009C4200F2238708F00BFA314B044659687C
:10266000186840AB03C3082140A80BF081FF02208B
:102670000AF096FE00283FF4CFAE1A480CF038FC62
:102680004FF080434FF47A755A6A586A164905FB31
:1026900000F0AAFB0030800BA9FB0063AAFB0262DA
:1026A0009B0905FB1303920B104810F019F81A4A06
:1026B00010490E4810F014F8F0230F4A0F490B4848
:1026C00010F00EF80E49094810F00AF815490748AD
:1026D00010F006F80C49054810F002F801480CF01B
:1026E000A7FBD1E62C7B0220503C0108607E022033
:1026F0009C3D01085C3C0108243E0108783C01082F
:10270000003D01087C3F0108AC3C0108903B0108FA
:10271000B83F0108983B0108FC3C01080C40010847
:10272000883B01089C3F010839480CF0E1FB4FF061
:1027300080434FF47A755A6A586A364905FB00F0AF
:10274000AAFB0030800BA9FB0063AAFB02629B0975
:1027500005FB1303920B30480FF0C2FF2F4A30499C
:102760002D480FF0BDFF40F20D132E4A2E492A4886
:102770000FF0B6FF2D4928480FF0B2FF2C4926482C
:102780000FF0AEFF2B4924480FF0AAFF20480CF0B1
:102790004FFBF5E61E480CF0ABFB4FF080434FF4C7
:1027A0007A765A6A586A1B4906FB00F0AAFB003089
:1027B000800BA9FB00E3AAFB02E29B0906FB1303C3
:1027C000920B15480FF08CFF1B4A154912480FF069
:1027D00087FF40F21913134A13490F480FF080FF87
:1027E00012490D480FF07CFF14490B480FF078FF99
:1027F000104909480FF074FF05480CF019FB40F22E
:10280000191108480DF0ACFB02E7012329936EE68D
:102810002C7B0220503C0108607E0220FC3C010819
:102820005C3C0108243E0108783C0108003D010899
:10283000D43F0108AC3C01089C3D0108EC3F010875
:10284000A3463494B4480CF053FB4FF080434FF44C
:102850007A745A6A586AB14904FB00F0AAFB003046
:10286000800BA9FB0053AAFB02529B0904FB130334
:10287000920BAB480FF034FFAA4AAB49A8480FF0BF
:102880002FFFE423A94AAA49A5480FF029FFA94927
:10289000A3480FF025FFA849A1480FF021FFA74941
:1028A0009F480FF01DFF9C480CF0C2FA3DA807F0AE
:1028B000BFFC359B3099BDF8F4509DF8F640DA0026
:1028C000D21A9F4B03EBC2022F9B10695B1A9C49E3
:1028D00001EBC3039DF8F71018619DF8F8009D8087
:1028E0009C719DF8F9509DF8FA40D97118725169A0
:1028F00092695D7200209C7259619A619873187791
:102900002F9B309A31998F4C9D1A8D4A4FF08043FE
:1029100042F835105B6A259A03F59C431F339B1AD6
:10292000874A02EBC505AAFB03239B0B6B7708F0D4
:102930008FF8E88308F09CF82168288411B90DF01D
:102940005FF82168804B309A1B6893FBF1F12F9B55
:102950007E4C9A1A7A4B03EBC2027C4B51847A4A22
:10296000186800231360774A136010B90DF060F8FF
:1029700020682F9A3099764B541A714A1B6893FB42
:10298000F0F302EBC4040022A384714B1A606F4B76
:1029900077201A600DF0C4F90546002800F0D481B4
:1029A000772160A80DF014F960A80AF0B9FBA062C5
:1029B00060A80DF07DF8A08560A80DF0D1F8E08545
:1029C00076200DF0ADF90446002800F07E817621D6
:1029D0006BA80DF0FDF86BA80AF0A2FB2F9B309AB4
:1029E0009C1A574B03EBC40420636BA80DF060F8EE
:1029F000A0866BA80DF0B4F8E0864748554F0CF060
:102A000077FA4FF0804345495A6A5C6A44484FF46C
:102A10007A7303FB04F4AAFB0434A40BA9FB04534C
:102A2000AAFB02529B094FF47A7505FB1343920BE4
:102A30000FF056FE484A3C4939480FF051FE40F22B
:102A40002F133A4A3A4936480FF04AFE394934487A
:102A50000FF046FE2F9B309A9A1A394B03EBC204B3
:102A60003E4BA18DB4F92E00B4F936C026900D4628
:102A7000A18E29950E4632492A9651F83220329974
:102A80001D912169B4F81EE0A3FB050560690029CA
:102A9000D4BF4FF0FF31012100283046A3FB0006D0
:102AA0004FEAD6062B96329E208C169628902069E7
:102AB000299E00FB01F1A06A27914FEAD505A3FBEF
:102AC0000001206B1B9505EB8505A6EB4505269EB1
:102AD000A3FB0003ADB230461C9587FB000587FBC6
:102AE0000C074FEAE670C0EB651029904FEAEC75D1
:102AF0006069C5EB6717D4BF4FF0FF35012500FBB8
:102B000005F02B9D2C9005EB850622952A9DA5EBC3
:102B10004606B6B224E000BF2C7B0220503C0108E0
:102B2000607E0220B03C01085C3C01086C3C01085E
:102B3000783C0108003D010868410108AC3C0108EF
:102B4000640C0020507B0220447B02204C7B02203E
:102B5000487B02201F85EB51FC3C0108CDCCCCCC3E
:102B60002396299E3046269E642505FB17CC05FB3F
:102B70001060C908BDF9A45017911995A56A01EB19
:102B800081010FFA8CF6A5EB4101A9FB0EC5AD0939
:102B900012951891AC464FF47A7505FB1CEEDB08D4
:102BA000256BCDF8A4E003EB8301A5EB4101279D44
:102BB00000B21A90AE462798AD4DC01785FB0EE5C2
:102BC000C0EBA55EB4F924001E93A38800931F9167
:102BD000A17921963FB2237AA64D2097279F667A46
:102BE000159005FB1E7E289DE079AC46A9FB0CC71D
:102BF000BF094FF47A7C10970CFB1755B4F922707B
:102C00002795149703932C9F994B05900496029057
:102C100083FB07C3F817C0EBA3532069329D84469A
:102C2000934880FB0C0C2069019161690E46904924
:102C300081FB061661690695C91726918D4901FB2E
:102C400013730A93C017BDF8A4301393C0EBAC53B1
:102C50000793269BBDF89C7087498848C3EBA6560E
:102C6000637F0E9394F81CC0CDF834C0CDF820E0FB
:102C70000F950C9511970996814BA5690B950FF04F
:102C80002FFD80497D480FF02BFD7F480CF0D0F8D8
:102C90004FF08043596A7D4B1A68914204F1040356
:102CA00003D3BBF1030F00F03B84794B2598339A93
:102CB0001A60319B00F51211013301F5F85131937F
:102CC0000CF0AEF92590FFF7F5B86F480CF010F94D
:102CD0004FF080434FF47A755A6A586A6D4905FB84
:102CE00000F0AAFB0030800BA9FB0063AAFB026284
:102CF0009B0905FB1303920B60480FF0F1FC664A39
:102D000066495E480FF0ECFC4FF48D73644A6549E8
:102D10005A480FF0E5FC644958480FF0E1FC63495C
:102D200056480FF0DDFC574954480FF0D9FC56487F
:102D30000CF07EF8309A2F9B9B1A5D4A02EBC3037E
:102D40001C639C86DC8658E64F480CF0D1F84FF0A7
:102D500080434FF47A765A6A586A4E4906FB00F06F
:102D6000AAFB0030800BA9FB0073AAFB02729B092F
:102D700006FB1303920B41480FF0B2FC4D4A474942
:102D80003E480FF0ADFC40F20D13454A45493B4823
:102D90000FF0A6FC444939480FF0A2FC46493748D9
:102DA0000FF09EFC374935480FF09AFC36480CF07E
:102DB0003FF840F20D113A480DF0D2F8A562A58512
:102DC000E585FDE530480CF093F84FF080434FF473
:102DD0007A745A6A586A2F4904FB00F0AAFB003043
:102DE000800BA9FB0053AAFB02529B0904FB1303AF
:102DF000920B22480FF074FC2E4A28491F480FF00E
:102E00006FFC40F2F7132D4A26491C480FF068FC6E
:102E100025491A480FF064FC294918480FF060FC56
:102E2000184916480FF05CFC17480CF001F840F206
:102E3000F71122480DF094F8FFF781BA042D7FF6C0
:102E4000FAAB40F697039C42379634953E4636904F
:102E5000269FCDF8E0C0CDF898E0279D40F2C680CF
:102E6000349B042B00F2D0804FF0030BEAE400BF48
:102E70006BCA5F6B8096980090410108607E0220CB
:102E8000D43C0108AC3C01082C7B0220D40C00206F
:102E90003C7E0220503C0108B03C01085C3C01082B
:102EA0006C3C0108783C0108003D0108CC3D01085C
:102EB000640C00209C3D0108A43D0108243E01084B
:102EC000143F010839480CF013F84FF080434FF4D9
:102ED0007A745A6A586A364904FB00F0AAFB00303B
:102EE000800BA9FB0053AAFB02529B0904FB1303AE
:102EF000920B30480FF0F4FB2F4A30492D480FF069
:102F0000EFFB40F2F1132E4A2E492A480FF0E8FB5E
:102F10002D4928480FF0E4FB2C4926480FF0E0FB30
:102F20002B4924480FF0DCFB20480BF081FF40F2D6
:102F3000F11123480DF014F8FFF786B91B480BF088
:102F4000D7FF6A6A686A1A4906FB00F0AAFB0030DC
:102F5000800BA9FB0043AAFB02429B0906FB13035B
:102F6000920B14480FF0BCFB134A144911480FF0A0
:102F7000B7FB4FF4F073124A12490E480FF0B0FB42
:102F800011490C480FF0ACFB12490A480FF0A8FB9E
:102F90000F4908480FF0A4FB04480BF049FF4FF419
:102FA000F07107480CF0DCFFFFF7FDB82C7B022026
:102FB000503C0108607E02209C3D01085C3C0108F9
:102FC000243E0108783C0108003D0108D03E01087C
:102FD000AC3C01088C3E01083495279D379636900D
:102FE0003E46CDF8E0C0269FCDF898E03991279273
:102FF00007F0C6F83999279ABBF1030F7FF422AC8A
:10300000349B042B7FF630AF2D062A9B05EB074738
:10301000374407EB032302EB01224FF080461D46A5
:1030200093B22A9307F0ACF8B8480BF061FF726ACC
:10303000736AB749B7484FF47A7B0BFB03F3AAFBDB
:1030400003439B0BA9FB0374AAFB0272A4090BFBAD
:103050001433920B0FF044FBAF4AB049AD480FF068
:103060003FFBCB23AE4AAF49AA480FF039FBAE492C
:10307000A8480FF035FBAD49A6480FF031FBAC492D
:10308000A4480FF02DFBA1480BF0D2FE9F480BF097
:103090002FFF726A736A9E499E480BFB03F3AAFBDB
:1030A00003439B0BA9FB0374AAFB0272A4090BFB4D
:1030B0001433920B0FF014FB974A984995489D4F93
:1030C0000FF00EFBCC23964A964992480FF008FB6E
:1030D000954990480FF004FB2E9ADFF88CE2130616
:1030E0002D9A03EB02432B9A13442C9A002D03EBE9
:1030F00002232846D4BF4FF0FF310121002BD4BF5B
:103100004FF0FF32012200FB01F11D46279505FB20
:1031100002F287FB0175299F0E97864F2B90CC17E3
:1031200087FB0270C4EBA5572B9C824DD31785FB00
:1031300004C5C3EBA053E017279C0EFB1717A4464A
:1031400027997C4C09970EFB1323329A0D9284FB2E
:103150000CC40A9207920592C917289A0292C1EBF1
:10316000A451379A349C0694C0EBA550389C269DF8
:103170000192369A03950494009208906E4A0B913E
:103180000C936E492A9B63480FF0AAFA684961487C
:103190000FF0A6FA5D480BF04BFE2899684BBDF87E
:1031A00018715A484EF6602202FB05F203FB012318
:1031B0000BFB04331F440BF09BFE726A736A544985
:1031C00054480BFB03F3AAFB03439B0BA9FB0354DB
:1031D000AAFB0252A4090BFB1433920B0FF080FAE6
:1031E0004D4A4E494B480FF07BFA6323554A4D49EF
:1031F00048480FF075FA4C4946480FF071FA5249A9
:1032000044480FF06DFA4A4942480FF069FA3F48C6
:103210000BF00EFE6BA807F00BF83C480BF068FEB5
:10322000726A736A3A493B480BFB03F3AAFB0343F8
:103230009B0BA9FB0354AAFB0252A4090BFB1433FA
:10324000920B0FF04DFA344A344932480FF048FAE5
:1032500064233C4A33492F480FF042FA32492D4843
:103260000FF03EFABDF8B4619DF8B2519DF8B1413E
:103270009DF8B0019DF8AF119DF8AE21BDF8AC31BD
:103280000596049503940290019100922F49304ACB
:103290002048304C304E314D0FF022FA24491D4861
:1032A0000FF01EFA19480BF0C3FD3799DFF8BCC0C8
:1032B0002B4B9DF8ADE127F0784289FB0202294FA4
:1032C00001F01F0192092E913699A7FB02B0A4FBD1
:1032D00002B4C00801F00F012D91ACFB00B14FEA20
:1032E000541BA3FB02439B0989083593A5FB0245A8
:1032F000A6FB024301EB41014FEA5E143994A0EBB7
:1033000041012E9C359E00EB800031E02C7B022099
:10331000503C0108607E0220FC3C01085C3C010836
:103320006C3C0108783C0108003D01082840010878
:10333000AC3C01086BCA5F6BD43C010850400108EB
:1033400080EE36000C4101081441010830410108AB
:103350002C41010889888888C5B3A291D55204E917
:10336000B5814E1BCDCCCCCC80969800ABAAAAAA36
:10337000A2EB40002A9AA7FB04E44FEAD40EED0B1F
:10338000ACFB06C430322D9ED2B240EA0555A008EF
:103390002E9C2C924FEAD32C45EA0115A7FB06631D
:1033A0003999A7FB0B260EEB8E02DB08A4EB420239
:1033B00042EA41322D9C99001944A4EB410142EAB2
:1033C0000122F6082C9906EB8606ABEB4606A7FB16
:1033D00001B4E40845EA0626359DA7FB04B142EA9C
:1033E000033300EB4000A7FB0CB22C9FA5EB400081
:1033F000D20804EB8405C908A7EB450543EA0E1380
:1034000002EB820201EB810146EA0030ACEB4202A2
:10341000A4EB410143EA054340EA024643EA015472
:10342000EFF311850DB90BF08BFE5D4B1A68D36875
:1034300043F08003D360D3685906FCD5166054600E
:10344000D36823F08003D3600DB90BF091FE309A5E
:103450002F9BBDF8A8109B1A524A02EBC30301220E
:1034600099809DF8D81099719DF8DC10D9719DF85C
:10347000A01019729DF8981059729DF8E010997279
:103480002B99196127995961299999619DF8D01053
:1034900019779A734FF0030BFFF732BA37963495CA
:1034A0003E463690269FCDF8E0C0CDF898E0279DA7
:1034B000A2E53D480BF01CFD4FF080434FF47A74B9
:1034C0005A6A586A394904FB00F0AAFB0030800BA5
:1034D000A9FB0053AAFB02529B0904FB1303920BA6
:1034E00033480FF0FDF8334A334931480FF0F8F80C
:1034F00040F2FB13314A32492D480FF0F1F83149BF
:103500002B480FF0EDF8304929480FF0E9F82F4922
:1035100027480FF0E5F824480BF08AFCFFF79BB82A
:10352000349A042A7FF6C1AB207A657AA288E479BE
:10353000B3F808E04FF4616101FB00F03C26C117CD
:10354000C6FB85019E7916EB000B214804F1FF3480
:103550004FF0000700FB04F447EB010C99781BEBDC
:1035600004064CEBE477930701F1FF3140F06781EB
:10357000184B33F8113000FB03F3F01847EBE371FD
:1035800040F2B2739A4238D903A5D5E90045124EEC
:10359000002729E0AFF300808033E1010000000044
:1035A00098870220640C00202C7B0220503C0108EC
:1035B000607E0220FC3C01085C3C0108243E0108BE
:1035C000783C0108003D0108383F0108AC3C010887
:1035D00080510100343C01080085E201013380196B
:1035E0009BB27941934208D013F0030FF6D0013318
:1035F00000199BB269419342F6D18C0044EA907362
:1036000082005C0144EAD2643B9454013A94DDE9BF
:103610003A45A41A2246309D2F9C8F4B641B03EB26
:10362000C4041518E8008D4BA1690546206964693A
:1036300042941C68419004F5000404F5404415EBE5
:103640000E0224010029ACBF89B20021C4F310038B
:1036500040924391002B00F0FB8081480BF048FC26
:103660004FF080414FF47A734A6A486A7D4903FB00
:1036700000F0AAFB0050800BA9FB0065AAFB0262C8
:10368000AD0903FB1503920B77480FF029F8774A31
:10369000774975480FF024F83623764A7649724800
:1036A0000FF01EF8754970480FF01AF82246744959
:1036B0006D480FF015F873496B480FF011F8684822
:1036C0000BF0B6FB20460DF02BFF034618B1013B73
:1036D00013F0FF03FBD16C4B1A69002AC0F2CA81B8
:1036E0006949CB68684AD803FBD4136923F4807313
:1036F00013611369136116460DF1FF00651E13690E
:1037000010F8011F43F00103136105F8011FD3688E
:103710005D49DB03FBD4336923F0010333610DF210
:103720000F138342EBD10B6943F000430B6140ABB5
:1037300004F11000217813F8012B914204F10104E7
:1037400044D18442F6D146480BF0D2FB4FF0804181
:103750004FF47A734A6A486A424903FB00F0AAFBB5
:103760000040800BA9FB0054AAFB0252A40903FBF2
:103770001403920B3C480EF0B3FF3C4A3C493A48D4
:103780000EF0AEFF3D233B4A3B4937480EF0A8FF01
:103790003A4935480EF0A4FF3C4933480EF0A0FFEB
:1037A000384931480EF09CFF2D480BF041FB2B4B64
:1037B000374A1B681268374901331144274AC3F35B
:1037C0000D031360324B1960FFF76FBA24480BF0FA
:1037D0008FFB4FF080414FF47A734A6A486A21495F
:1037E00003FB00F0AAFB0040800BA9FB0054AAFBDE
:1037F0000252A40903FB1403920B1B480EF070FF46
:10380000254A1B4918480EF06BFF3F23194A1A49F5
:1038100015480EF065FF194913480EF061FF1F4966
:1038200011480EF05DFF17490F480EF059FF0C4884
:103830000BF0FEFA3F210F480CF092FBB7E7184B54
:1038400033F8113000FB03F3F01847EBE37197E610
:1038500004F50031234628E0640C0020600C0020B1
:103860002C7B0220503C0108607E0220FC3C0108B9
:103870005C3C01086C3C0108783C0108003D0108F3
:1038800008430108AC3C0108003C0240D442010856
:10389000D40C0020005125029C3D0108EC42010897
:1038A000183C01088B423FF4D8AE1A78FF2A03F186
:1038B0000103F7D09548964D0BF01AFB4FF080416D
:1038C0004FF47A734A6A496A03FB01F1AAFB0101CA
:1038D000890BA9FB01608009AAFB026203FB10139C
:1038E000920B8C498C480EF0FBFE8C4A8C498A481E
:1038F0000EF0F6FE30238B4A8B4987480EF0F0FE1F
:103900008A4985480EF0ECFE2246894982480EF02D
:10391000E7FE884980480EF0E3FEA3467B480BF0A3
:1039200087FA4FF40033584626941C460DF0F8FDF4
:103930002B69002B0746C0F28C80EB68744ADE03CB
:10394000FBD4136923F48073136113691361136942
:10395000F80723F07803136103D5136943F00803D4
:103960001361B90703D52B6943F010032B617A0764
:1039700003D52B6943F020032B613B0703D52B694B
:1039800043F040032B612B6943F002032B612B6949
:1039900043F480332B61EB685D4ADE03FBD413698B
:1039A00023F002031361136943F000431361002FF6
:1039B00069D03E464FF0006B013EF6B2032E304612
:1039C00007D90DF09DFD013EF6B2032E834430462B
:1039D000F7D80BF5804B002EEED1032F47D9384690
:1039E0000DF08EFD70B19BF80020FF2A3AD100EB5C
:1039F0000B010BF1010303E013F8012BFF2A31D176
:103A00009942F9D17E1C16F0FF064FF0006B10D0E2
:103A1000013EF6B2032E304607D90DF071FD013E8E
:103A2000F6B2032E83443046F7D80BF5804B002EB8
:103A3000EED1032F18D938460DF062FD844211D91A
:103A4000241A58460DF06CFD2B69002B0746BFF673
:103A500074AF394B6B6003F188336B602B69002BBB
:103A6000BFF66BAF269CF8E54FF48040E6E74FF4D5
:103A70008040B8E73049314A59605A601B69002BD1
:103A8000BFF62EAE53E64FF0006B4FF48040AAE72E
:103A90001E482B4D0BF02CFA4FF080434FF47A70F8
:103AA0005A6A596A274B00FB01F1A5FB0161890B9A
:103AB000A3FB0163A5FB02529B0900FB1313920BAE
:103AC000144915480EF00CFE1F4A154912480EF015
:103AD00007FEA223134A14490F480EF001FE1349B2
:103AE0000D480EF0FDFD19490B480EF0F9FD114986
:103AF00009480EF0F5FD05480BF09AF9144B1B68C8
:103B00001C639C86DC86FEF7C9B900BF2C7B0220B3
:103B1000003C0240503C0108607E0220FC3C010851
:103B20005C3C01086C3C0108783C0108003D010840
:103B3000BC420108AC3C010823016745AB89EFCDCD
:103B40005917B7D1D34D6210B03C0108CC3D0108E4
:103B50003C7E02203448354E0BF0CAF94FF08043CA
:103B60004FF47A705A6A596A314B00FB01F1A6FB97
:103B70000171890BA3FB0173A6FB02629B0900FB89
:103B80001313920B2B492C480EF0AAFD2B4A2C49FB
:103B900029480EF0A5FD95232A4A2B4926480EF008
:103BA0009FFD2A4924480EF09BFD294922480EF02A
:103BB00097FD284920480EF093FD1B480BF038F97B
:103BC000952120480CF0CCF92B689C629C85DC8503
:103BD000FEF747B90BF08CF97A6A7B6A05FB03F3B1
:103BE000A6FB03139B0BA4FB0301A6FB020289099E
:103BF00005FB1133920B0F490F480EF071FD164A69
:103C00000F490D480EF06CFD82230E4A0E490A48FA
:103C10000EF066FD0D4908480EF062FD0F4906489A
:103C20000EF05EFDFEF7EAB82C7B02205917B7D1E3
:103C3000D34D6210503C0108607E02209C3D01087B
:103C40005C3C01086C3C0108783C0108003D01081F
:103C5000A43D0108AC3C0108FC3C0108783D01088A
:103C60002DE98048426B9BB083465AB144F62063ED
:103C700003FB02F3BD4803F2E733A0FB03308009E6
:103C80000BF006FA4FF08044B948BA4DDFF834A380
:103C90000BF02EF9626A616A4FF47A7000FB01F151
:103CA000A5FB0131B14B890BA3FB0163A5FB0252BC
:103CB0009B0900FB1313920BAF49B0480EF010FDA7
:103CC000AF4AB049AD480EF00BFD7323AE4AAF4981
:103CD000AA480EF005FDAE49A8480EF001FD5A466F
:103CE000AC49A6480EF0FCFCAB49A4480EF0F8FC29
:103CF0009F480BF09DF8636A00930BF13C0301931E
:103D00000BF5867303934FF080449948994E974F73
:103D10000BF0EEF8626A636A974998484FF47A7537
:103D200005FB03FEA6FB0E3E4FEA9E3EA7FB0EC31D
:103D3000A6FB02C29B0905FB13E3920B0EF0D0FC1D
:103D40008F4A90498D480EF0CBFC78238E4A8F49DC
:103D50008A480EF0C5FC8E4988480EF0C1FC8F4998
:103D600086480EF0BDFC8C4984480EF0B9FC8048B2
:103D70000BF05EF8636ACBF8B03101980EF0F8FAF8
:103D8000002840F025829BF82081B8F1000F40F018
:103D90007F817748DFF830920BF0AAF8626A636A95
:103DA000754905FB03F3A6FB03039B0BA7FB03E08D
:103DB000A6FB02E2800905FB1033920B6F480EF060
:103DC0008FFC6F4A6F496D480EF08AFC84236E4A5F
:103DD0006E496A480EF084FC6D4968480EF080FC1C
:103DE0006F4966480EF07CFC6B4964480EF078FC25
:103DF0005F480BF01DF86B480BF07AF85C480BF04D
:103E000077F8626A636A5C4905FB03F3A6FB030368
:103E10009B0BA7FB03E0A6FB02E2800905FB103326
:103E2000920B56480EF05CFC554A564953480EF02A
:103E300057FC8623544A554950480EF051FC5449CA
:103E40004E480EF04DFC58494C480EF049FC524982
:103E50004A480EF045FC46480AF0EAFF44480BF099
:103E600047F8626A636A444905FB03F3A6FB030350
:103E70009B0BA7FB03E0A6FB02E2800905FB1033C6
:103E8000920B3E480EF02CFC3D4A3E493B480EF05A
:103E900027FC89233C4A3D4938480EF021FC3C4927
:103EA00036480EF01DFC414934480EF019FC3A49E1
:103EB00032480EF015FC2E480AF0BAFF3C480BF0D1
:103EC00017F82B480BF014F8626A636A2A4905FB5D
:103ED00003F3A6FB03039B0BA7FB03E0A6FB02E295
:103EE000800905FB1033920B24480EF0F9FB244A9D
:103EF000244922480EF0F4FB8B23234A23491F4810
:103F00000EF0EEFB22491D480EF0EAFB29491B4842
:103F10000EF0E6FB204919480EF0E2FB14480AF0C7
:103F200087FF254B254ADFF8A4E025484FF40041E0
:103F3000C9F818104FF080719961402182F8018012
:103F40004FF40012CEF818109A611C4B83F80280CF
:103F50000AF0CEFF4FF008034FF4FA60A9F81830CA
:103F60000BF096F813AA0A21302031E0D34D6210ED
:103F70002C7B02205917B7D1503C0108607E0220EB
:103F8000FC3C01085C3C010840430108783C010806
:103F9000003D010848430108AC3C010864430108A6
:103FA000844301082C77022098430108B04301089C
:103FB00070770220C4430108000C0240187E0220E2
:103FC000F8780220286402400010024000180240E5
:103FD00006F0B6F9002800F023814FF00803BDF881
:103FE0004C807F48A9F81A300AF022FF42F226637B
:103FF000984540F01C817B480AF07AFF626A636A48
:10400000794905FB03F3A6FB03039B0BA7FB0340C6
:104010008009A6FB024205FB1033920B73480EF099
:104020005FFB734A734971480EF05AFB9723724A3B
:1040300072496E480EF054FB71496C480EF050FB0B
:1040400070496A480EF04CFB6F4968480EF048FB17
:1040500064480AF0EDFE9BF81441052C40F06A829A
:10406000042303988BF814310BF06AF90BF060FC11
:1040700018B9631E13F0FF04F8D1644A9BF8143199
:1040800011680022C968013B8BF814311160FFDE12
:1040900009A80BF035FC80465248DFF880910AF001
:1040A00027FF626A636A504905FB03F3A6FB03031B
:1040B0009B0BA7FB03E0A6FB02E2800905FB103384
:1040C000920B4A480EF00CFB494A4A4947480EF009
:1040D00007FBE223484A494944480EF001FB48499E
:1040E00042480EF0FDFA4246494940480EF0F8FABF
:1040F00045493E480EF0F4FA3A480AF099FE39482C
:104100000AF0F6FE626A636A374905FB03F3A6FB11
:1041100003039B0BA7FB03E0A6FB02E2800905FB60
:104120001033920B31480EF0DBFA314A31492F48F7
:104130000EF0D6FAE423304A30492C480EF0D0FA7B
:104140002F492A480EF0CCFA324928480EF0C8FA16
:104150002D4926480EF0C4FA22480AF069FE21488B
:104160000AF0C6FE626A646A1F49204805FB04F42F
:10417000A6FB0434A40BA7FB0437BB09A6FB026211
:1041800005FB1343920B0EF0ABFA194A1949174875
:104190000EF0A6FAE523184A184914480EF0A0FAC2
:1041A000174912480EF09CFAD9F800201A490F4816
:1041B0000EF096FA14490D480EF092FA09480AF0EA
:1041C00037FE99F80030099841465A4601F090FAB6
:1041D00000980BF144010EF0A3F8009093E500BFA6
:1041E000F87802202C7B0220503C0108607E0220DF
:1041F000FC3C01085C3C010840430108783C010894
:10420000003D0108D8430108AC3C0108407B022076
:104210003C440108FC450108D8450108D80C0020A1
:104220004FF00803A9F81A30AC480AF001FEAC4878
:10423000AC4C0AF05DFE4FF080434FF47A705A6A3E
:10424000596AA94B00FB01F1A4FB0151890BA3FBA7
:104250000153A4FB02429B0900FB1313920BA349D9
:10426000A3480EF03DFAA34AA349A1480EF038FA3C
:10427000CA23A24AA2499E480EF032FAA1499C489C
:104280000EF02EFAA0499A480EF02AFA9F49984853
:104290000EF026FA92480AF0CBFD4FF00009CA2131
:1042A00096480BF05DFECDF808904FF080468C48A4
:1042B0008C4D8D4F0AF01CFE726A736A8B498C48D4
:1042C0004FF47A7404FB03F3A5FB03E39B0BA7FBFA
:1042D00003CE4FEA9E1EA5FB02C204FB1E33920BC7
:1042E0000EF0FEF98A4A844981480EF0F9F9CF238D
:1042F000824A83497E480EF0F3F982497C480EF0E9
:10430000EFF984497A480EF0EBF9804978480EF0CD
:10431000E7F973480AF08CFD7F480AF089FD704880
:104320000AF0E6FD726A736A7049714804FB03F390
:10433000A5FB03E39B0BA7FB03CE4FEA9E1EA5FB49
:1043400002C204FB1E33920B0EF0CAF9704A6A498E
:1043500067480EF0C5F9D123684A694964480EF0F0
:10436000BFF9684962480EF0BBF96C4960480EF02D
:10437000B7F966495E480EF0B3F959480AF058FD9E
:1043800057480AF0B5FD726A736A5849584804FBE9
:1043900003F3A5FB03E39B0BA7FB03CE4FEA9E1E93
:1043A000A5FB02C204FB1E33920B0EF099F9584A8A
:1043B00051494F480EF094F9D423504A50494C4883
:1043C0000EF08EF94F494A480EF08AF95449484890
:1043D0000EF086F94D4946480EF082F940480AF041
:1043E00027FD50480AF024FD3D480AF081FD726A1D
:1043F000736A3E493E4804FB03F3A5FB03E39B0BB2
:10440000A7FB03CE4FEA9E1EA5FB02C204FB1E3390
:10441000920B0EF065F93E4A374935480EF060F9C7
:10442000D623364A364932480EF05AF935493048D3
:104430000EF056F93C492E480EF052F933492C48FB
:104440000EF04EF926480AF0F3FCB9F1000F3FF4E4
:10445000BFAE2348DFF8D8800AF04AFD726A716A5D
:1044600004FB01F1A5FB0131890BA7FB0137A5FB7B
:104470000202BB0904FB1313920B1C491C480EF0EB
:104480002FF9234A1C491A480EF02AF9DB231B4A4C
:104490001B4917480EF024F91A4915480EF020F967
:1044A000D8F8002021491248531CC8F800300EF0FB
:1044B00017F916490E480EF013F909480AF0B8FC2E
:1044C00098F80030099802995A4601F011F90098BD
:1044D0000BF144010DF024FF009014E4F878022061
:1044E0002C7B02205917B7D1D34D6210503C0108E4
:1044F000607E02209C3D01085C3C010840430108AD
:10450000783C0108003D010864450108AC3C010805
:10451000FC3C01087C4501087077022090450108A9
:10452000A84501082C770220C0450108D84501089C
:10453000D80C002003980AF003FF05240BF0F8F9CB
:1045400018B9631E13F0FF04F8D14FF0804781467D
:10455000B748B84EB84C0AF0CBFC7A6A7B6AB749C8
:10456000B7484FF47A7505FB03F3A6FB03E39B0BF7
:10457000A4FB03CE4FEA9E1EA6FB02C205FB1E3320
:10458000920B0EF0ADF8AF4AAF49AD480EF0A8F867
:1045900040F25233AD4AAE49A9480EF0A1F8AD49F8
:1045A000A7480EF09DF8AC49A5480EF099F8AB4924
:1045B000A3480EF095F89E480AF03AFCA849A94A8B
:1045C0004B6B9B4823F001034B63136823F4804338
:1045D00023F0010313600AF08BFC7A6A7B6A974927
:1045E000974805FB03F3A6FB03739B0BA4FB037423
:1045F000A409A6FB026205FB1433920B0EF070F8BF
:10460000904A91498E480EF06BF840F256338F4A2B
:104610008F498B480EF064F88E4989480EF060F897
:10462000914987480EF05CF88C4985480EF058F89F
:104630007F480AF0FDFBDAF8003023F01F03CAF8C8
:104640000030DAF80030DB07FBD4884B7848794D2E
:10465000794F4FF080464FF474621A600AF048FCBC
:10466000726A736A754976484FF47A7404FB03F3EF
:10467000A5FB03E39B0BA7FB03CE4FEA9E1EA5FB06
:1046800002C204FB1E33920B0EF02AF86D4A6E49EB
:104690006B480EF025F840F25A336C4A6C49684872
:1046A0000EF01EF86B4966480EF01AF8704964481F
:1046B0000EF016F8694962480EF012F85C480AF0EC
:1046C000B7FB6C4B6C4808225A830AF0B1FB09A86F
:1046D0000BF016F98046029055480AF009FC726A00
:1046E000736A5649564804FB03F3A5FB03E39B0B8F
:1046F000A7FB03CE4FEA9E1EA5FB02C204FB1E339E
:10470000920B0DF0EDFF4F4A4F494D480DF0E8FF79
:10471000C0235A4A4E494A480DF0E2FF4D494848E5
:104720000DF0DEFF4246564945480DF0D9FF4B4992
:1047300043480DF0D5FF3E480AF07AFB3C480AF0AA
:10474000D7FB726A736A3D493D4804FB03F3A5FB3E
:1047500003E39B0BA7FB03CE4FEA9E1EA5FB02C201
:1047600004FB1E33920B0DF0BBFF364A364934482A
:104770000DF0B6FFC323414A354931480DF0B0FF73
:1047800034492F480DF0ACFF3E492D480DF0A8FFED
:1047900032492B480DF0A4FF25480AF049FB3A4B5B
:1047A0003A4A1B680BA8102107F042FD384B1B78D2
:1047B000002B3FF47AAD099B364806930AF098FB2C
:1047C0001B480AF095FB726A736A1C491C4804FB7B
:1047D00003F3A5FB03E39B0BA7FB03CE4FEA9E1E4F
:1047E000A5FB02C204FB1E33920B0DF079FF154AA4
:1047F000154913480DF074FF3C23274A144910480B
:104800000DF06EFF13490E480DF06AFF23490C4866
:104810000DF066FF11490A480DF062FF04480AF0E6
:1048200007FB1F491F4809F063FC034604903BE067
:104830002C7B02205917B7D1D34D6210503C010890
:10484000607E0220FC3C01085C3C0108F443010846
:10485000783C0108003D010800440108AC3C010817
:10486000003802400000055014440108086402406A
:104870002844010800100240F87802204043010853
:104880003C44010858440108D80C00207044010839
:1048900098770220A8870220844401088C440108EC
:1048A0009C440108E00C0020A048002B37D00AF0FF
:1048B0001FFB726A736A9E4904FB03F3A5FB036343
:1048C0009B0BA7FB03608009A5FB025204FB10337E
:1048D000920B98480DF004FF974A984995480DF0BF
:1048E000FFFE4123964A974992480DF0F9FE9649FA
:1048F00090480DF0F5FE049A94498E480DF0F0FEB4
:1049000093498C480DF0ECFE88480AF091FA412159
:104910008B480BF025FB8F480AF08AFAC5E40AF0B1
:10492000E7FA726A716ADFF8548204FB01F1A5FBB1
:104930000131890BA7FB0137A5FB0202BB0904FB70
:104940001313920B7A497B480DF0CAFE824A7B49C9
:1049500078480DF0C5FE4723794A7A4975480DF02D
:10496000BFFE794973480DF0BBFE0BAA7B49714825
:104970000DF0B6FE76496F480DF0B2FE6B480AF0B6
:1049800057FA0BAB0A930AA8049B1393C8F800309C
:104990000DF076F9051EC0F2C680714B53F8254024
:1049A000002C00F05C8413942378002B00F0E68147
:1049B000607807F0A5FAC70700F1E081460740F1EB
:1049C00070810A245948674D0AF092FA4FF08043EB
:1049D0004FF47A705A6A596A634B00FB01F1A5FBE8
:1049E0000161890BA3FB0163A5FB02529B0900FB3C
:1049F0001313920B4E494F480DF072FE4E4A4F4929
:104A00004C480DF06DFE4C234D4A4E4949480DF07F
:104A100067FE4D4947480DF063FE2246534945481D
:104A20000DF05EFE4A4943480DF05AFE3F480AF039
:104A3000FFF94C2142480BF093FA4FF080463B4877
:104A4000484FDFF824810AF053FA726A736A3849D2
:104A500038484FF47A7404FB03F3A7FB03539B0B12
:104A6000A8FB03E5AD09A7FB02E204FB1533920B9B
:104A70000DF036FE384A31492E480DF031FE6723DD
:104A80002F4A30492B480DF02BFE2F4929480DF0B5
:104A900027FE374927480DF023FE2D4925480DF004
:104AA0001FFE22480AF0C4F93249002009F020FB19
:104AB000054600283FF42FAF1C480AF019FA726A25
:104AC000706A1B4904FB00F0A7FB0030800BA8FBB9
:104AD00000384FEA9813A7FB026204FB1303920B02
:104AE00014480DF0FDFD144A144912480DF0F8FD6C
:104AF0006B23134A13490F480DF0F2FD12490D487C
:104B00000DF0EEFD2A461C490A480DF0E9FD10495A
:104B100008480DF0E5FD05480AF08AF96B210848C0
:104B20000BF01EFAF7E60B244CE700BF2C7B0220AB
:104B3000503C0108607E02209C3D01085C3C01085D
:104B400084440108783C0108003D0108A0440108A4
:104B5000AC3C0108A8870220FC3C0108C0440108C5
:104B60003C7B02205917B7D1D34D6210144601087F
:104B700030450108F8440108404501080879022041
:104B8000022013AB9E4200F09D8356F8045B002D7B
:104B9000F6D0294620460DF0BBFA0028F1D194F852
:104BA0003C2094F83B3043EA0223B3F5007F40F009
:104BB0008F8394F8463094F840E094F8477084F876
:104BC00003E053EA07270EF1FF3308BF676DA761C3
:104BD000012B00F27D8394F83D00A07007FB0EFED0
:104BE000002800F07583431E034240F0718394F85F
:104BF000426094F8413043EA06263107268140F0AE
:104C0000678394F8442094F8433094F83F1053EAB3
:104C1000022394F83E2008BF236D52EA012200F0DF
:104C2000578302EB16117144994200F251835B1ACB
:104C3000B3FBF0F3002B00F04B8340F6F57083429A
:104C400040F2E4844FF6F570834240F2058502336A
:104C50002A44294463612262A162E561002E40F08A
:104C600037839B0003F2FF12B7EB522FE36D6362B1
:104C7000C0F02E8394F8612094F8603043EA022358
:104C800080214FF0FF32012B2261E260617100F060
:104C9000FF840323964A2370138801339BB2138049
:104CA000E3800FAB0A9C199322782F2A00F0D6805C
:104CB0005C2A00F0D3800025159522781F2A02D89F
:104CC000D3E014F8012F2F2AFBD05C2AF9D003F18E
:104CD0000B001A46202102F8011B8242FBD100255D
:104CE0002E46AE46671E4FF0080C17F8011F20290C
:104CF00006F1010622D92F294BD05C2949D02E2953
:104D000022D0AC451DD90A0632D4222919D07948BF
:104D100001E08A4215D010F8012F002AF9D1A1F143
:104D20004102192A1BD84EF0020E595517F8011FDF
:104D3000202905F1010506F10106DCD834440422DE
:104D40005DBB062004463DE6BCF1080FF9D14FEAF1
:104D50008E0E65465FFA8EFE4FF00B0CC5E7A1F193
:104D60006102192AE1D82039C9B24EF0010EDCE700
:104D70008039614A4EF0030E515CC6E7E8B2002369
:104D80006070237007F0BCF8C50740F18D820324E2
:104D900018E634440022002DD3D01978E52904BF49
:104DA00005211970BCF1080F04BF4FEA8E0E5FFA9F
:104DB0008EFE0EF0030101290EF00C0E08BF42F02A
:104DC0001002BEF1040F08BF42F00802DA7213A805
:104DD00009F0AEF9002831D1179913980CF078FF3B
:104DE00060BB189D297859B395F80BE01EF0080FA9
:104DF0001ED1199B2E4603F10B071A4601E016F847
:104E0000011F12F8010B884212D19742F7D1DA7ACA
:104E100050073FD41EF0100F16D0139AE87E117879
:104E2000AA7E032942EA002211D0159222784AE78D
:104E3000002113A80DF0CCF80028CDD0042881D192
:104E4000199BDB7A59071AD405200446BAE5687D18
:104E5000297D41EA002142EA0142E6E701340025CA
:104E6000159522781F2A3FF62EAF13A809F060F996
:104E7000189500283FF465AF04287FF463AF13A8AA
:104E800009F056F9002800F09183042814BF044665
:104E9000072497E51EF0110F40F01F8206F090FFE7
:104EA00000230412020E010C6A74A873EC732974B7
:104EB000EB722B776B77AB77EB77139CEF7E2378D6
:104EC000AA7E032B42EA072700F0998300230122E0
:104ED000AB76EB762B756B752271002F3FD0E36AB2
:104EE0000493974202D963699F4207D3022469E57C
:104EF000DC0C0020284301085C4601083E46314690
:104F000020460CF09DFF00B30128EFD0421C00F0BA
:104F10003183012EEAD96269B242E7D90590314660
:104F2000002220460CF0F4FE059B00287FF40AAF17
:104F30002269561C05D06179013241F001012261DC
:104F40006171626993421E46D9D313980499013F57
:104F5000C7600CF0BDFE00287FF4F4AE139CE26A3B
:104F6000C8F820502A2388F806300023C8F81C20EF
:104F700088F807302278E97EAB7E032A43EA0123D2
:104F800000F0AE81E288E969B648C8F80C10002547
:104F9000C8F81030C8F80040A8F80420C8F8085035
:104FA000C8F8185009F0A4FF4FF080434FF47A700E
:104FB0005A6A596AAC4CAD4BAD4F00FB01F1A4FBF2
:104FC0000161890BA3FB0163A4FB02429B0900FB67
:104FD0001313920BA749A8480DF082FBA74AA849D2
:104FE000A5480DF07DFB5223A64AA749A2480DF023
:104FF00077FBA649A0480DF073FB029AA4499E488E
:105000000DF06EFBA3499C480DF06AFB954809F032
:105010000FFF09F0D5FA002840F01A81F97939B963
:10502000BB7903F0020202F0FF00002A40F05F812A
:105030000490029B049A93423AD08A488A4C09F021
:1050400057FF4FF080434FF47A705A6A596A874B82
:1050500000FB01F1A4FB0151890BA3FB0153A4FB4D
:1050600002429B0900FB1313920B824982480DF008
:1050700037FB894A824980480DF032FB5723814A29
:1050800081497D480DF02CFB80497B480DF028FBC1
:105090000022824978480DF023FB7E4976480DF0C6
:1050A0001FFB704809F0C4FE572176480AF058FFEC
:1050B0006C486D4C09F01CFF4FF080434FF47A7040
:1050C0005A6A596A694B00FB01F1A4FB0151890B33
:1050D000A3FB0153A4FB02429B0900FB1313920B99
:1050E000644965480DF0FCFA644A654962480DF070
:1050F000F7FA5C23634A64495F480DF0F1FA6349AB
:105100005D480DF0EDFA66495B480DF0E9FA61493A
:1051100059480DF0E5FA534809F08AFE09F050FAB3
:10512000002840F0938098F80630514C9A0640F1E0
:1051300091805B060ED52146012351F8240BA2690C
:10514000407806F08DFE002840F0C580A37923F05A
:105150004003A371D8F81C10D8F80000444E0CF09E
:10516000B7FD054600283CD004463E483E4D09F0B8
:10517000BFFE4FF080434FF47A705A6A596A3B4B36
:1051800000FB01F1A5FB0161890BA3FB0163A5FBFA
:1051900002529B0900FB1313920B364936480DF05F
:1051A0009FFA3D4A364934480DF09AFA6023354A51
:1051B000354931480DF094FA34492F480DF090FAF2
:1051C000224638492C480DF08BFA32492A480DF016
:1051D00087FA244809F02CFE60212A480AF0C0FE14
:1051E0002BE4376AFB7A43F02003FB72F3683269E1
:1051F0003B7719127977190CB9771B0E110C101225
:10520000FB770B12BA767B75F876397506F0D8FD08
:10521000B3793468B8750212FA75020C3A76000E4A
:1052200023F0200301227876BD74FD74B37120460B
:1052300022710CF0F5FC48B92378032B00F02D8186
:105240006378002B47D109F0BBF918B104468CE70D
:105250000495EEE60023C8F80030FFF7EEBB0C24FF
:10526000FFF7B0BB2C7B02205917B7D1D34D62108A
:1052700008790220503C0108607E0220FC3C0108B5
:105280005C3C010884440108783C0108003D0108A9
:10529000D4440108AC3C01089C3D0108FC440108D1
:1052A0001C4501083846010800F0040303F0FF051F
:1052B000002B7FF486AB294620460CF029FF0128FD
:1052C00000F05B81032800F0558100283FF467ACB3
:1052D0000D24FFF777BB012447E70724FFF772BBD4
:1052E000697D2A7D42EA012243EA02434AE6BA681E
:1052F0000298D04280F0B680002800F0B280CDF84D
:105300001490DDF8189004910790C2F30803002B65
:1053100079D1D8F800108D78013D05EA522515F0B5
:10532000FF0512D1002A40F08E803869002800F075
:105330000981012800F0FB80441C7ED0D8F8103091
:10534000C8F81400396803B9386198F80630C04CC1
:10535000580600F19380D8F814204869BC4B023AF3
:105360000238824280F0E38088788E6A00FB026611
:10537000002E00F0DC80079A540A2E4437D02B19F7
:10538000984238BF441B234648783246494606F0C7
:1053900067FD002851D1D8F818309E1BB44211D9AE
:1053A000AC4B09EB4626721E03F5007012F8011F84
:1053B00003F8011F8342F9D198F8063023F0400327
:1053C00088F806306402D8F8082009EB0400049B32
:1053D000079923442244091B0493C8F808208146F6
:1053E0009B4B079191D1DDF814909B793BE0BA6912
:1053F0009642BA6803D0F8688242C0F0AB80C8F821
:105400001860C2F30803079AC3F50074944228BFDA
:1054100014464344233309EB04004A4612F8011BA7
:1054200003F8011F9042F9D198F80630D8F8082007
:1054300043F0400388F80630C9E70123DDF81490F3
:1054400088F80730F5E5084679690CF059FD002821
:105450007FF46FAFDDF81490D8F8082098F8063084
:1054600001E002990491D8F80C007949824243F096
:10547000200388BFCA6088F80630DAE54878BA6940
:10548000012304F1240106F0EBFC002855D1BB797F
:10549000396823F04003BB715DE76379012B7FF42A
:1054A000CFAE04F130010B4604F50C7203F8010B8A
:1054B0009A424FF00005F9D12069E368E26984F867
:1054C0001802061284F81962060C84F81A62000E9B
:1054D0001E0C1F1284F81C321B0E84F81B0284F869
:1054E0001E625520AA2684F81F325223013284F806
:1054F0002E0284F82F626120412684F8303084F82F
:105500003130722384F8320084F8170284F81432A0
:1055100084F8153284F81D72E26284F8336084F8EE
:1055200016620123607806F09BFC657188E6022311
:10553000DDF8149088F807307BE50123DDF814903E
:10554000E37176E5084629460CF0DAFC00287FF482
:10555000F0AE7FE74878069303F1240132460DF060
:10556000D7F8069B08B9BA6849E70122DDF814901C
:10557000DA715EE50124FFF725BA0FAE314604F576
:10558000FB7304F2362013F8042C02B11A6841F8B8
:10559000042B10339842F6D1FFF7F7BA8BB10121F3
:1055A00013A80CF015FD00287FF46FAC1799139821
:1055B0000CF08EFB00287FF468AC189B1B78E52B61
:1055C000ECD1179913980CF083FB00287FF4BAAB49
:1055D000189B03F1200203F8010B9342FBD1199AA7
:1055E000189B02F10B01013B12F8010B03F8010FAC
:1055F0008A42F9D1139B01221A71189D4EE46A7DEB
:105600002B7D43EA022347EA03475FE402332A443F
:10561000294463612262A162E561002E3FF458AE25
:1056200003F0010101F2FF1103EB430301EB53030C
:105630007244B7EB532F6262FFF44AAE4FF0FF3370
:1056400080222361E36062710123FFF723BB00BF67
:10565000087902202B79022002332A44294463610D
:105660002262A162E561002E3FF432AE5B0003F2DC
:10567000FF137244B7EB532F6262FFF429AE4FF071
:10568000FF3380222361E36062710223FFF702BBD4
:10569000691C20460CF01CFB00287FF4FAAA94F841
:1056A0002F2294F82E32667143EA02234AF65522DD
:1056B00093427FF4EEAA236B0A4A93427FF4E9AA4D
:1056C00002F1FF52D4F8143202F500522032934214
:1056D0007FF4DFAAD4F81822D4F81C322261E360E8
:1056E000FFF7D7BA525261410000000000000000ED
:1056F0002DE9F04FADF65C1D17460DF24C441E46E9
:105700000792049005912046002140F20C5207F5C3
:1057100086750EF0A5F926742B4607F589711A4691
:105720000133107810B18B421A46F8D1531E9D42B6
:105730004FF0000303D91AE00B18AA4217D012F851
:10574000011D03EB8303A1F14100DB001928A1F146
:105750006106A3F13300EFD9192EA1F13000A3F1B6
:10576000530600F28A80AA4201EB0603E7D10DF24C
:105770001A754FF0DB0E2846CD2641224749E360DB
:105780000DF25B77A4F804E06680FBF781FFC4F8B4
:105790000055434D434938464122FBF779FF0FCD71
:1057A000C4F804750DF29C770FC795E80F0007C782
:1057B0003D4D3B700FCDCDF8B907CDF8BD17CDF8F5
:1057C000C12707CD0DF29C7EC4F8F0E4CDF8C537B3
:1057D000CDF8C9070DF2D673CDF8CD17CDF8D12786
:1057E0002A7832498DF8D5270DF2B9771846B322B9
:1057F000C4F8F474FBF74CFF0DF689050346B32299
:105800002B49C4F8F8342846FBF742FF40F2222720
:105810000DF12F0308A84FF480720021A363E66303
:10582000C4F8FC546063A4F808750EF019F900225E
:10583000114620460AF034FB0023069303934FF0F1
:10584000804294F849300799526AC1F8B021052B7B
:1058500000F01682E56B002D00F0BF87636A002B15
:1058600000F0F681216AA26A481C013B2062097897
:1058700063623AB1013AA262F1E709289CBF2F3B6B
:105880005B185AE794F84920042AE8D8DFE812F0B8
:105890008701C4014F011200120000BF44480108F3
:1058A000CC4E010888480108EC4E0108DC4601088E
:1058B00090470108FF2904BF0123A362E06A94F81E
:1058C000303041EA00210833032AE16284F83030A5
:1058D0004FF001054FF0400600F0BB84042A00F0B1
:1058E000578594F859703F2F17D994F8583094F889
:1058F00057200133DBB2911C8B4284F8583000F002
:10590000C38593422ABF013300239B1A84F8563083
:10591000002384F8593084F87530E36B002B40F095
:105920009384237FFF2B4FF0030500F06886628885
:105930009342C0F064869B1AFF2123770F460B46E3
:10594000626B552010702278606B66324270626B19
:10595000E07B9070626BE089D070E268606B120A45
:105960000271626BE0685071626B207C9071628A98
:10597000606B120AC271626B608A1072E288606B9F
:10598000120942722289606B12098272606B0022D6
:10599000C272666B042D96F90BE014BF104604200A
:1059A0004EEA0000F072D4F834E0267D9EF80B0039
:1059B00006F0030630438EF80B00606B0373636BD5
:1059C0005F73636B9973E06B78B1A16B13460A1830
:1059D00003EB8303C3EBC303C3EBC3032D3303F018
:1059E000FF0301F8013B9142F2D1A788D4F834E0DB
:1059F000002F01F0308176460EEB070C4FF0FF30A0
:105A000016F8013F4340DBB2082213F0010F4FEAC2
:105A1000530118BF734B02F1FF3214BF4B405B08B8
:105A200012F0FF02F1D1664583EA1020E8D1C043AD
:105A30004FEA106CC0F30741C0F30726C0B25FFA0B
:105A400087F808F10102D2B208F102030EF802C091
:105A5000DBB2626BD15408F10302616BD2B208F180
:105A600004038E54DBB2626BD0542178002901F01C
:105A7000AD80638A042D03F10103638201F07F800E
:105A8000079D05F124000CF0F3FC95F8303095F8F3
:105A90002020CDF834048DF83824002B00F07E87C8
:105AA000022B40F23887504809F022FA4FF0804329
:105AB0004FF47A755A6A586A4C4B4D4905FB00F011
:105AC000A3FB00304B4B800BA3FB0063474E9B09AD
:105AD000A6FB026205FB1303920B47480CF000FE85
